:020000040800F2
:10000000C8060020E1020008E9020008EB0200082F
:10001000ED020008EF020008F102000800000000F5
:10002000000000000000000000000000F3020008D3
:10003000F502000800000000F70200080D3100087A
:10004000FB020008FB020008FB020008FB0200089C
:10005000FB020008FB020008FB020008FB0200088C
:10006000FB020008FB020008FB020008FB0200087C
:10007000FB020008FB020008FB020008FB0200086C
:10008000FB020008FB020008FB0200080000000061
:10009000000000000000000000000000FB0200085B
:1000A000FB020008FB020008FB020008FB0200083C
:1000B000FB020008FB020008FB020008FB0200082C
:1000C000FB020008FB020008FB020008FB0200081C
:1000D000FB020008FB020008FB0200080000000011
:1000E000FB020008FB020008FB0200080000000001
:1000F000000000000000000000000000FB020008FB
:1001000000000000FB020008FB020008FB020008E0
:1001100000000000000000000000000000000000DF
:10012000FB020008FB020008FB020008FB020008BB
:10013000FB020008000000000000000000000000BA
:10014000000000000000000000000000FB020008AA
:10015000FB020008FB020008FB020008FB0200088B
:10016000FB020008FB020008000000000000000085
:10017000000000000000000000000000000000007F
:1001800000000000FB02000800000000000000006A
:10019000FB02000800F002F800F092F80AA090E8D4
:1001A000000C82448344AAF10107DA4501D100F032
:1001B00087F8AFF2090EBAE80F0013F0010F18BF6D
:1001C000FB1A43F001031847E4400000044100001B
:1001D000103A24BF78C878C1FAD8520724BF30C873
:1001E00030C144BF04680C60704700000023002445
:1001F00000250026103A28BF78C1FBD8520728BF37
:1002000030C148BF0B6070476E2900F0B98170297A
:1002100000F0FB82662903F05287652903F04F87BF
:10022000672903F04C87612903F04B8703681B0A99
:1002300028BF41F08001692900F06681642900F03F
:100240006381752900F060816F2900F08982782927
:1002500000F0C782E92900F02382E42900F020821F
:10026000F52900F01D82EF2900F08682F82900F0C0
:10027000C6820368DB0928BF41F08001632900F0D2
:10028000C787732900F0CC87E32900F0D787F329CB
:1002900000F0DC87002070471FB503F003FF01F07A
:1002A0002BF804000020002103F0E6FE401C6060F3
:1002B0000020002103F0CAFEE0601FBD10B510BD94
:1002C00000F0ECFF1146FFF7E7FF03F0DDF801F067
:1002D000C9F803B4FFF7F2FF03BC01F00FF9000007
:1002E0000948804709480047FEE7FEE7FEE7FEE7CA
:1002F000FEE7FEE7FEE7FEE7FEE7FEE70448054906
:10030000054A064B704700000133000895010008BC
:10031000C8000020C8060020C8020020C802002033
:1003200053EA020C00F069802DE9F04B4FF0000613
:10033000002B1FBFB3FA83F503FA05F424FA05F680
:100340005E4012BF1643B2FA82F502FA05F4C5F117
:1003500020051EBF22FA05FC44EA0C04203556EAAB
:10036000044C4FEA144418BF641C4FF000084FF0CF
:100370000009904271EB030C39D3002919BFB1FA7F
:1003800081F701FA07F6B0FA80F700FA07F6C7F12D
:1003900020071EBF20FA07FC46EA0C062037B6FBF2
:1003A000F4FCA7EB0507103F07F01F0BCBF120066D
:1003B0002CFA06F60CFA0BFB44BFB3460026202F9E
:1003C000A4BF5E464FF0000B5BEA060C08BF4FF07F
:1003D000010B19EB0B0948EB0608ABFB027C06FB93
:1003E00002CC0BFB03CCC01B71EB0C01C1E70B462D
:1003F000024641464846BDE8F08B13B5084318BF96
:100400004FF0FF300146AFF30080BDE81C4070475D
:100410000FB41CB5084B06AA7B44694600900598AA
:1004200000F0C7F804460020694600F0D5F82046E1
:100430001CBC5DF814FB0000BD0100007047704754
:10044000704770B5044685690068C10601D530263D
:1004500000E02026C00707D070BDD4E90121304656
:100460009047206A401C20626D1EF6D570BD70B5A5
:10047000044685690078C00707D170BDD4E9012121
:1004800020209047206A401C20626D1EF6D570BD6A
:1004900009684A0501D540B27047C905FCD500B2CC
:1004A000704709684A0501D5C0B27047C905FCD537
:1004B00080B2704770B50C460546012A05D02878F1
:1004C000800600D5EA69002302E0012305E05B1CF9
:1004D000934202D2E05C0028F9D1A869E618C01A5C
:1004E000A861286A184428622846FFF7AAFF04E09A
:1004F000D5E9012114F8010B9047B442F8D32846FE
:10050000FFF7B5FF70BD00002DE9F041064600245D
:1005100010687529314616A510D0FFF7B9FF0028DD
:1005200002DA404213A507E031688A0701D512A517
:1005300002E0490704D511A5012401E0FFF7B1FF4E
:1005400000210A2206F1240709E0B0FBF2FCB0FB0F
:10055000F2F302FB1C00303078541846491C002886
:10056000F3D123462A463046BDE8F04100F061BA97
:10057000000000002D0000002B0000002000000003
:1005800011680268006A530501D508700AE0D305B6
:1005900001D5088006E0130603D5C217C1E90002A1
:1005A00000E008600120704701694A1C0261087878
:1005B000704700B58FB0CDE90131002105910549A3
:1005C0007944CDE903101146684600F029F90FB0CF
:1005D00000BD0000E5FFFFFF0A6802F8010B0A609A
:1005E000704700002DE9FF5F15468A460446DFF894
:1005F000AC80F8440027D8E900103E46CDE9001051
:1006000010E03AF816106A4602A800F023FE411CDA
:1006100007D02178890603D5E269391891420DD8AF
:100620000744761C2078800602D5E069B84205DDD3
:10063000AE42E6DB3AF816000028E2D1A069C01B02
:10064000A0612046FFF7FDFED8E90010CDE90010BB
:10065000002017E03AF818106A4602A800F0FAFDE8
:10066000B0F1FF3F81460BD000250DF1080B05E0EE
:10067000D4E901211BF8050090476D1C4D45F7D3C7
:1006800008F10100B0428046E4DB206A3844206271
:100690002046FFF7ECFEBDE8FF9F0000D23A0000C5
:1006A0002DE9F0418046D21D22F007020025D2E953
:1006B0000002F52915A614D0011E72F1000106DA18
:1006C0000023D0EB030063EB020211A608E0D8F888
:1006D00000108B0701D50FA602E0490701D50EA631
:1006E00001251146002408F1240704E000F05CF91C
:1006F00030323A55641C50EA0102F7D12B4632469B
:1007000021464046BDE8F04100F093B900000000EA
:100710002D0000002B0000002000000030B400215C
:1007200000F1240408E002F00705D208303542EA5F
:100730004372DB086554491C52EA0305F3D104688F
:10074000002310A2250708D504F020040C4304D090
:10075000C46901230CA2641EC46130BC00F069B9F5
:1007600010B5044621461068FFF79BFE024620465E
:10077000BDE810400023D1E7D21D22F00701D1E9E6
:100780000023CBE70000000030000000F0B40D466D
:100790000188090502D5214C7C4402E01F4C7C44B1
:1007A0000E34002100F1240608E002F00F071209C0
:1007B000E75D42EA03721B097754491C52EA0307BA
:1007C000F3D102780023120704D5702D06D009B1A9
:1007D000022311342246F0BC00F02BB9012310345F
:1007E000F8E770B504460D4621461068FFF759FE3C
:1007F000024629462046BDE870400023C6E7D21DC8
:1008000022F00703D3E90023C0E70368126843F02E
:10081000200303600823C3610023B7E734390000D5
:100820002DE9F05F894604464FF0000ADFF874B105
:10083000FB44C0F820A02046E1688847002874D017
:10084000252806D0D4E901219047206A401C206267
:10085000F1E700265F462046E168884720280546E4
:1008600007DB312D05D2781910F8200C08B10643AA
:10087000F1E7B00701D526F00406C4F81CA0002754
:10088000C4F818A02A2D09D0284603F0D7FB38B3A6
:1008900004EB8708303DC8F8185019E059F8041BDC
:1008A000204604EB87029161E1688847012F0546E5
:1008B00018D1E069002820DA26F020061DE0D8F8DB
:1008C000180000EB800005EB40003038C8F8180035
:1008D0002046E1688847054603F0B0FB0028EED1CA
:1008E000012F0AD02E2D08D12046E16888477F1CB1
:1008F0000546022F46F02006C4DBA069002803DA73
:10090000404246F00106A061F00701D026F0100633
:100910006C2D0BD0682D09D04C2D39D06A2D35D0D7
:10092000742D35D07A2D33D016E038E0E1682F46AB
:1009300020468847B842054609D16C2F26D04FF48F
:100940008060E168064320468847054604E06C2F36
:100950001AD04FF4807006430DB3A5F14100192859
:1009600002D8203546F400664A46294620462660CD
:100970004E46FFF749FC80B101280BD0F61D26F04A
:10098000070000F1080956E74020E4E78020D8E797
:100990000020D6E706F104094DE7284652E7206A11
:1009A000BDE8F09FC438000030B5B0F10A0271F123
:1009B00000034FEA900E4EEA817EB0EB0E0061EB31
:1009C00091014FEA101E4EEA017E10EB0E0041EB42
:1009D00011114FEA102E4EEA016E10EB0E0041EBA2
:1009E00011214FEA104E4EEA014E10EB0E0041EB82
:1009F0001141401841F100014FEAD00040EA417036
:100A00004FEAD1014FEA810444EA907410EB80056B
:100A100044EB01046D1944EB0404521BA3414FF055
:100A2000000348BF0A3200D530BD401C41F100012F
:100A300030BD2DE9F0470D4699469246044600F137
:100A400024080168880604D5E06921F010012160BE
:100A500000E00120A84201DD471B00E00027A1695A
:100A60007A1902EB0900081AA0612078C00602D4A6
:100A70002046FFF7E6FC002608E0D4E901211AF839
:100A800006009047206A401C761C20624E45F4DB2D
:100A90002078C0060AD52046FFF7D3FC06E0D4E94B
:100AA000012130209047206A401C2062381EA7F1A7
:100AB0000107F4DC07E0D4E9012118F805009047AC
:100AC000206A401C2062281EA5F10105F3DC2046A7
:100AD000FFF7CDFC2078000602D50220BDE8F087A4
:100AE0000120FBE72DE9FF4F0C461E464FF0FF3774
:100AF0008BB0D2E90001DDF860800A908A46C1F32C
:100B00000A5505B93D46002108464FF00000BAF1EC
:100B1000000F00F4400005DA00EB80004FF44001C4
:100B200001EA50004FEA9059B9F1010F00DDB946D2
:100B30000A9850EA4A000ED044F61050A5F2FF354C
:100B400045432F14B8F1000F1ED07542291E1EDD3B
:100B5000C9F100021CE0B8F1010F4FF0000001D014
:100B6000302103E0F24305E02154401CB042FBDB9E
:100B700030460022002121540B99C1F80880C1E9B8
:100B800000200FB0BDE8F08FBD1B6D1CDEE74A46AC
:100B900000DA694206A800F0F3FB06AB93E8070011
:100BA00003AB83E8070050460A9902F066FE8DE821
:100BB0000700A0F500501F3800900398002D0ADDB3
:100BC00042F21F014A460844002303A903906846E5
:100BD00003F0D0F809E0A0F500504A461F38002382
:100BE00003A90390684603F0DAF88DE807000004D3
:100BF000000C03D04FF0FF30410800E01046B8F180
:100C0000000F03D00022009215461EE0751E05D489
:100C1000FFF7CAFE303262556D1EF9D5B346012288
:100C2000084302D000227F1C04E02078302801D144
:100C300000227F1E002A099784D01DE0112D07DABB
:100C4000FFF7B2FE303262556D1C50EA0102F5D159
:100C5000084302D00098C8B10EE00021681E05E0EC
:100C6000235C625C63542254401E491C8142F7DBC2
:100C7000AB46A81B401E0990002004F80B000B98FF
:100C8000099AC0F80880C0E9002B7AE711264FF0D6
:100C9000000857E72DE9F04F88460446D21D22F0A0
:100CA000070191B0D1E90001CDE90A0103F0AEF9E5
:100CB00002460B98C00F01D02D2007E02068810765
:100CC00001D52B2002E0202101EAC000032A09906F
:100CD00001D0072A05DB03464146204600F010FB01
:100CE0000BE12078800601D5E06900E00620B8F12C
:100CF000650F814606D0B8F1660F18D0B8F1670FBE
:100D000070D131E00020B9F1110F009001DB112307
:100D100001E009F101030AAA01A90CA8FFF7E2FE0C
:100D2000DDE90C70002609F10105834647E001204A
:100D30004B4600904FF000470AAA01A90CA8FFF704
:100D4000D1FEDDE90DB00C995D46002610B909F120
:100D500001000D18B9EB050003D4C0F1FF3609F10D
:100D60000105A5EB09002BE0B9F1010F01DA4FF005
:100D700001090020B9F1110F0090484601DD11234F
:100D800000E003460AAA01A90CA8FFF7ABFEDDE9C3
:100D90000C704D4600268346207800070AD4AB45E8
:100DA00000DA5D4601A8012D04DD411911F8011C8E
:100DB000302907D04F4502DA17F1040F04DA012079
:100DC00082460FE06D1EEEE7002F02DCED1B3E4475
:100DD00003E0781CA84200DD7D1CB81B00F1010A6D
:100DE0004FF000472078000703D4AA4501DB4FF0FD
:100DF000FF3A0021B7F1004F0DF143088DF8431081
:100E000024D002202B23002F01DA7F422D230A2138
:100E1000021EA0F1010000DC5FB197FBF1FC97FB23
:100E2000F1F201FB1C7C17460CF1300C08F801CDE7
:100E3000EEE7A8F1010003702188090501D54521DD
:100E400000E06521A0F1010800F8011C09980FA934
:100E5000A1EB0807FF1D00B10120411901EBEA7069
:100E6000A1693844081A401EA0612078C00602D447
:100E70002046FFF7E6FA099828B1D4E90121904706
:100E8000206A401C20622078C00622D52046FFF749
:100E9000D8FA1EE0002E04DBB34502DD01A8805D18
:100EA00000E03020D4E901219047206A401C2062F4
:100EB000761CAAF101005FEA000A0AD100F01CFAD0
:100EC000C0680168405CD4E901219047206A401C59
:100ED0002062281EA5F10105DCDC07E0D4E9012130
:100EE00018F8010B9047206A401C2062381EA7F1B9
:100EF0000107F3DC2046FFF7BAFA032011B041E600
:100F00002DE9F04F04460D46D21D22F0070089B0AE
:100F1000D0E900974846394603F078F80246F80FC2
:100F200001D02D2307E02068810701D52B2302E0A3
:100F3000202101EAC0038DF820300BB1012000E030
:100F40000020032A824601D0072A04DB29462046D6
:100F500000F0D6F93FE12078800601D40D2500E0AD
:100F6000E569C7F30A560D2D49DA00214FEA175BF0
:100F700008464FF00000002F00F4400007DA00EBB5
:100F800080004FF4400100EBD07001EA6000811551
:100F9000012901DD4FF0FF3100224FEA850CBCF141
:100FA000180F06D31346ACF118004FF08052C24020
:100FB00003E04FF4801323FA0CF30CF10C0CBCF19A
:100FC000200F04D3ACF1200C09FA0CF001E007FA71
:100FD0000CF000294FF0004801DD18B90FE00ED1E8
:100FE00040450CD319EB02095F4121B9404502D1BC
:100FF0009F4329EA0209BBEB175F00D0761C2088CB
:10100000000502D57B48784402E07A4878441938D4
:1010100008AA302302F80A30037C0AF10101002EED
:101020000AF1020A53546A4602DC4FF0300101E033
:101030004FF031014FF001088DF8001002D0A6F2F8
:10104000FF3603E059EA470100D06B4E002D02DC69
:101050002178090704D54FF002082E218DF80110E0
:10106000C44600210BE0C7F303433F01C35C491CA6
:101070006D1E02F80830052908F1010801DA002D7B
:10108000F1DC00210CE000EB1973491C1B786D1E8C
:10109000082902F808304FEA091908F1010801DAB5
:1010A000002DF0DC21688B0602D516E0A8F10108BE
:1010B000E04505DD02EB080313F8013C302BF5D0C9
:1010C000B8F1000F09DD02EB080313F8013C2E2BE9
:1010D00003D1090701D4A8F10108002D05DD3E2147
:1010E00002F808106D1E08F10108407C002E02F87D
:1010F000080008F1010804DA2D20764202F8080001
:1011000002E02B2002F808000A214FF47A70864290
:1011100008F101080BDB96FBF0F3303302F80830DE
:1011200096FBF0F308F1010800FB136601E0642E62
:101130000CDB642096FBF0F3303302F8083096FBAA
:10114000F0F308F1010800FB136601E00A2E06DB4C
:1011500096FBF1F0303002F8080008F1010896FB28
:10116000F1F001FB1060303002F80800A16908F1CD
:10117000010808EB050202EB0A00081AA0612078BA
:10118000C00602D42046FFF75CF9216A08AE01EBE5
:101190000A00206204E0D4E9012116F8010B90470F
:1011A000BAF1010AF7D22078C00602D52046FFF72F
:1011B00048F96E4609E016F8010B3E280FD0D4E935
:1011C00001219047206A401C2062B8F10108F2D248
:1011D0002046FFF74CF909B00320BDE8F08F206AE4
:1011E0002844206203E0D4E90121302090476D1E9D
:1011F000EBD3F8E71231000002FCFFFF10B54369A2
:1012000013B1AFF3008001E0FFF754F9012010BDE6
:10121000127800F124010A7000224A700122EDE7E1
:1012200011684FF0FF32E9E710B5436913B1AFF32E
:10123000008001E0FFF7D6F9012010BD128800F10F
:10124000240182840022C2840122EDE711684FF05C
:10125000FF32E9E72DE9F04116460C46054600F05D
:1012600043F8036893F80101012807D0FF2C12D836
:10127000185D80B101202C70BDE8F081D3F8070122
:101280003246214603F20713C7182846BC46BDE87C
:10129000F041002360474FF0FF30EDE7754600F066
:1012A000EBF8AE4605006946534620F00700854638
:1012B00018B020B5FFF722F8BDE820404FF0000637
:1012C0004FF000074FF000084FF0000BAC46ACE8C1
:1012D000C009ACE8C009ACE8C009ACE8C00921F01D
:1012E00007018D467047000010B500F005F8001D9D
:1012F00010BD00BF852D0000004870473000002061
:101300002DE9F0411F46044603260168072A01F42F
:10131000006004DB08B116A505E016A503E008B1DE
:1013200015A500E015A521F010002060A069C01EE1
:10133000A0610FB1401EA0612046FFF782F84FB1B7
:10134000D4E9012138469047206A401C2062C01C25
:10135000206206E0206AFAE7D4E9012115F8010BC2
:101360009047761EF8D22046FFF781F8BDE8F0815D
:101370004E414E006E616E00494E4600696E660039
:101380002DE9F047814616468AB0354878440DC8A5
:101390008DE80D0032487844801C03AC0DC884E809
:1013A0000D0041F69B300844372190FBF1F290FB91
:1013B000F1F5A5F1800501FB12041B3C02D5644246
:1013C000012000E00020DFF898A080460027FA44C2
:1013D000AAF1BE0A0EE0E0070AD03246684607EBE3
:1013E000470101230AEB810102F0D9FC8DE80700D7
:1013F00064107F1C002CEED1194F7F44AE3F19E0E2
:10140000E80715D007EB04100DF1180A90E80E005C
:101410008AE80E00C068F04201D19819089032465F
:10142000012306A903A802F0BAFC03AB83E8070076
:101430006D10641C002DE3D14FF001033246694664
:10144000B8F1000F03A802D002F094FC01E002F012
:10145000A6FCC9E90001C9F808200AB0BDE8F08778
:101460001C2E000010B50446AFF300802046BDE8F6
:101470001040FEF72EBF000000487047100000200B
:1014800030B44FF0013C50F8042B51F8043BCCFA37
:1014900052F4D51A20D1FCB950F8042B51F8043B72
:1014A000CCFA52F4D51A17D1B4B950F8042B51F82C
:1014B000043BCCFA52F4D51A0ED16CB950F8042B77
:1014C00051F8043BCCFA52F4D51A05D1002CDAD0ED
:1014D00030BC4FF00000704729BAB1FA81F111F029
:1014E0001801D1F120008440F2D1CA40CB4012F063
:1014F000FF0213F0FF0330BCD01A704701491820D7
:10150000ABBEFEE7260002007047000082B00190EB
:1015100042F20030C4F2010000900099486820F4C3
:10152000403048600198426800994868104348601C
:1015300001980168486820F480704860019801684B
:101540000269486840EA02204860019801684868DA
:1015500020F0407048600198016882684868104334
:10156000486001980168886820F4006088600198EC
:101570000168C2688868104388600198806A012108
:10158000C0F60071884219D0FFE7019801688868A9
:1015900020F07060886001980168826A8868104352
:1015A000886001980168886820F040508860019840
:1015B0000168C26A8868104388600CE0019801687D
:1015C000886820F07060886001980168886820F061
:1015D00040508860FFE701980168886820F00200A9
:1015E00088600198027E0168886840EA420088604D
:1015F000019890F82000C8B1FFE701980168486899
:1016000040F40060486001980168486820F4604038
:10161000486001980168426A4EF20000CFF6FF7000
:1016200000EB423248681043486006E001980168C8
:10163000486820F400604860FFE701980168C86AC4
:1016400020F47000C86201980168C2690020CFF6DA
:10165000F07000EB0252C86A1043C862019801683A
:10166000886820F400708860019890F83020016844
:10167000886840EA4220886001980168886820F400
:1016800080608860019801684269886840EA822029
:10169000886002B07047000085B00390029100207E
:1016A0000190FFE7039890F83C00012804D1FFE780
:1016B00002208DF81300F7E00399012081F83C0027
:1016C000FFE7FFE7029800680A281CD3FFE70298AB
:1016D000008800EB4000A0F11E01072000FA01F293
:1016E00003980168C8689043C860029988680988AF
:1016F00001EB41011E3900FA01F203980168C86844
:101700001043C86018E00298008800EB40010720F1
:1017100000FA01F203980168086990430861029990
:101720008868098801EB410100FA01F20398016819
:10173000086910430861FFE70298406806281BD833
:10174000FFE70298406800EB8000411F1F2000FA6D
:1017500001F203980168486B904348630299088836
:10176000496801EB8101053900FA01F2039801682B
:10177000486B104348633DE0029840680C281CD831
:10178000FFE70298406800EB8000A0F123011F20D2
:1017900000FA01F203980168086B9043086302990C
:1017A0000888496801EB8101233900FA01F20398A6
:1017B0000168086B104308631BE00298406800EB67
:1017C0008000A0F141011F2000FA01F20398016896
:1017D000C86A9043C86202990888496801EB810190
:1017E000413900FA01F203980168C86A1043C862DF
:1017F000FFE7FFE742F20030C4F2010000900398D7
:10180000006842F20001C4F2010188420BD1FFE7F7
:1018100002980068122806D1FFE70099486840F452
:1018200080004860FFE70398006842F20001C4F2BC
:10183000010188422ED1FFE702980068102805D0E8
:10184000FFE702980068112824D1FFE70099486853
:1018500040F40000486002980068102819D1FFE7A2
:1018600040F20000C2F2000000684DF68361C4F24D
:101870001B31A0FB0110800C00EB800040000190A8
:10188000FFE7019820B1FFE7019801380190F8E7E0
:10189000FFE7FFE7FFE70399002081F83C00FFE73F
:1018A00000208DF81300FFE79DF8130005B0704786
:1018B00081B0009000980068C06C01B070470000D3
:1018C00080B584B0029000208DF80700029820B9FE
:1018D000FFE701208DF80F0042E00298806A0121A5
:1018E000C0F60071884201D0FFE7FFE70298006C64
:1018F00050B9FFE7029800F037F8029900204864D9
:10190000029981F83C00FFE70298006CC0060028AD
:1019100017D4FFE70298006C40F0020020F48850D2
:10192000029908640298FFF7F1FD029900204864CB
:101930000298006C40F0010020F002000299086457
:1019400003E001208DF80700FFE7FFE70299002080
:1019500081F83C00FFE79DF807008DF80F00FFE7D6
:101960009DF80F0004B080BD81B0009001B07047B9
:1019700080B584B002900191002000900298006828
:1019800080684005002816D5FFE702980068806847
:10199000C00500280FD5FFE70299086C40F0200031
:1019A0000864FFE70299002081F83C00FFE701206E
:1019B0008DF80F006DE000F065FB0090FFE70298E6
:1019C0000068006800F00200022829D0FFE70198B3
:1019D000013020B3FFE7019840B1FFE700F052FB70
:1019E0000099401A0199884218D9FFE702980068C7
:1019F000006800F0020002280FD0FFE70299086C8F
:101A000040F004000864FFE70299002081F83C00E0
:101A1000FFE703208DF80F003BE0FFE7FFE7CEE78D
:101A2000029801686FF0120008600299086C40F497
:101A30000070086402980068806810F0405F24D14C
:101A4000FFE70298007E00BBFFE702980068C06ACB
:101A500010F4700F07D0FFE7029800688068400517
:101A6000002812D4FFE70299086C20F48070086403
:101A70000298006CC004002806D4FFE70299086CA5
:101A800040F001000864FFE7FFE700208DF80F0039
:101A9000FFE79DF80F0004B080BD000084B0029005
:101AA00000200190FFE7029890F83C00012804D143
:101AB000FFE702208DF80F00A5E00299012081F8D0
:101AC0003C00FFE7FFE7029800688068C007F0B9B4
:101AD000FFE702980168886840F00100886040F2E2
:101AE0000000C2F2000000684DF68361C4F21B31B1
:101AF000A0FB0110800C00EB40000190FFE7019873
:101B000020B1FFE7019801380190F8E7FFE702985C
:101B100000688068C007002866D0FFE70298006C64
:101B200040F4807040F20161884302990864029891
:101B3000006840684005002809D5FFE70298006C5E
:101B400040F4805020F4005002990864FFE70298A6
:101B5000006CC004002806D5FFE70299486C20F00D
:101B60000600486403E0029900204864FFE7FFE7AD
:101B70000299002081F83C00FFE742F20030C4F2F5
:101B800001000090029801686FF022000860009840
:101B90004068C00678B9FFE702980068806810F0D6
:101BA000405F07D1FFE702980168886840F08040F5
:101BB0008860FFE717E00298006842F20001C4F273
:101BC000010188420ED1FFE702980068806810F09A
:101BD000405F07D1FFE702980168886840F08040C5
:101BE0008860FFE7FFE70AE00299086C40F0100008
:101BF00008640299486C40F001004864FFE7002047
:101C00008DF80F00FFE79DF80F0004B0704700004B
:101C100082B00090FFE7009890F83C00012804D1C2
:101C2000FFE702208DF8070024E00099012081F8E9
:101C30003C00FFE7FFE700980168886820F001009A
:101C40008860009800688068C00748B9FFE700987E
:101C5000006C40F0010020F4885000990864FFE710
:101C6000FFE70099002081F83C00FFE700208DF895
:101C70000700FFE79DF8070002B0704780B584B009
:101C8000039000F0FFF90290039801900198013051
:101C900048B1FFE740F20400C2F200000178019869
:101CA00008440190FFE7FFE700F0ECF90299401AC1
:101CB0000199884201D2FFE7F6E704B080BD000039
:101CC0008BB00A900991002007900690059008902B
:101CD000FFE708980F2800F2A281FFE7089901208A
:101CE0008840079009980068079908400690069870
:101CF0000799884240F08E81FFE70998406800F01C
:101D00000300012807D0FFE70998406800F00300AE
:101D100002282FD1FFE70A988068059008984100B3
:101D2000032000FA01F10598884305900998C068DE
:101D30000899490000FA01F10598084305900598B3
:101D40000A9988600A98406805900899012000FA6D
:101D500001F105988843059009984068C0F3001088
:101D6000089900FA01F105980843059005980A9929
:101D70004860FFE70998406800F00300032818D086
:101D8000FFE70A98C068059008984100032000FA10
:101D900001F10598884305900998806808994900E1
:101DA00000FA01F105980843059005980A99C86062
:101DB000FFE70998406800F00300022826D1FFE7FA
:101DC0000A9808996FF0030202EA51010844006A78
:101DD0000590089800F0070081000F2000FA01F13B
:101DE00005988843059009980069089901F0070152
:101DF000890000FA01F105980843059005980A99B1
:101E0000089B02EA530211440862FFE70A9800683F
:101E1000059008984100032000FA01F105988843D5
:101E200005900998406800F003000899490000FAFD
:101E300001F105980843059005980A9908600998EA
:101E400080798007002800F0E480FFE7FFE70020AA
:101E5000049043F64400C4F20200016841F480415A
:101E60000160006800F4804004900498FFE708983F
:101E700020F0030043F60801C4F201014058059028
:101E8000089800F0030081000F2000FA01F1059886
:101E9000884305900A980021C4F20201884203D1C8
:101EA000FFE70020039034E00A9840F20041C4F2BA
:101EB0000201884203D1FFE70120029026E00A9840
:101EC00040F60001C4F20201884203D1FFE702207C
:101ED000019018E00A9840F60041C4F202018842DD
:101EE00003D1FFE7032000900AE00A9941F20002C3
:101EF000C4F202020720914208BF04200090FFE7CD
:101F000000980190FFE701980290FFE70298039084
:101F1000FFE70398C0B2089901F00301890000FAB5
:101F200001F10598084305900598089921F00301EF
:101F300043F60802C4F20102885043F60040C4F29E
:101F40000100006805900699059888430590099856
:101F50008079C00728B1FFE70699059808430590E6
:101F6000FFE7059843F60041C4F20101086043F61B
:101F70000440C4F201000068059006990598884362
:101F80000590099880798007002805D5FFE7069914
:101F9000059808430590FFE7059843F60441C4F20D
:101FA0000101086043F60840C4F201000068059092
:101FB000069905988843059009988079C0060028FD
:101FC00005D5FFE70699059808430590FFE70598B2
:101FD00043F60841C4F20101086043F60C40C4F224
:101FE00001000068059006990598884305900998B6
:101FF00080798006002805D5FFE7069905980843F3
:102000000590FFE7059843F60C41C4F20101086012
:10201000FFE7FFE7FFE708980130089059E60BB0AB
:102020007047000082B00190ADF80210019800697D
:10203000BDF80210084204D0FFE701208DF801002E
:1020400003E000208DF80100FFE79DF8010002B0D9
:102050007047000082B00190ADF802108DF80120A9
:102060009DF8010028B1FFE7BDF8020001998861E1
:1020700005E0BDF80200000401998861FFE702B0A5
:102080007047000040F2C000C2F2000000687047D4
:1020900040F20400C2F20000027840F2C001C2F235
:1020A00000010868104408607047000080B543F6DE
:1020B0000041C4F20201086840F40070086008683A
:1020C00040F480600860032000F05CF80F2000F00E
:1020D00005F800F03BF8002080BD000080B582B01C
:1020E000009040F20000C2F20000006840F20401DB
:1020F000C2F200010A784FF47A71B1FBF2F1B0FB41
:10210000F1F000F06DFD20B1FFE701208DF8070030
:1021100018E000980F280DD8FFE700994FF0FF3026
:10212000002200F015F8009840F20801C2F2000108
:10213000086003E001208DF8070003E000208DF81F
:102140000700FFE79DF8070002B080BD7047000060
:1021500080B586B08DF8170004910392002002909C
:1021600001F0D8F802909DF91700019002980499A7
:10217000039A00F06BFF0146019801F0D3F806B016
:1021800080BD000080B582B00190019801F0ECF8AC
:1021900002B080BD80B584B002900191029820B950
:1021A000FFE701208DF80F0021E1019843F600417F
:1021B000C4F20201096801F00701884212D9FFE761
:1021C000019943F60040C4F202000170006800F07B
:1021D00007000199884204D0FFE701208DF80F0025
:1021E00005E1FFE702980078800700282AD5FFE77D
:1021F000029800784007002809D5FFE743F6080158
:10220000C4F20201086840F4E0500860FFE7029859
:1022100000780007002809D5FFE743F60801C4F25B
:102220000201086840F460400860FFE743F60801D7
:10223000C4F20201086820F0F000029A926810438C
:102240000860FFE702980078C00700286ED0FFE71B
:1022500002984068012811D1FFE743F60000C4F25C
:102260000200006800F400310020B0EB514F04D1AF
:10227000FFE701208DF80F00B9E02CE002984068DC
:10228000022805D0FFE702984068032811D1FFE734
:1022900043F60000C4F20200006800F00071002064
:1022A000B0EB516F04D1FFE701208DF80F009EE0E5
:1022B00010E043F60000C4F20200006800F00201E2
:1022C0000020B0EB510F04D1FFE701208DF80F0083
:1022D0008DE0FFE7FFE743F60801C4F2020108685A
:1022E00020F00300029A526810430860FFF7CAFE0C
:1022F0000090FFE743F60800C4F20200006800F017
:102300000C0002994968B0EB810F0ED0FFE7FFF790
:10231000B9FE0099401A41F28931884204D3FFE79F
:1023200003208DF80F0062E0E4E7FFE7019843F631
:102330000041C4F20201096801F00701884212D28B
:10234000FFE7019943F60040C4F202000170006803
:1023500000F007000199884204D0FFE701208DF8C2
:102360000F0044E0FFE702980078400700280CD5F2
:10237000FFE743F60801C4F20201086820F4E050C8
:10238000029AD26810430860FFE7029800780007BD
:1023900000280DD5FFE743F60801C4F202010868E2
:1023A00020F46040029A126940EAC2000860FFE728
:1023B00000F028F843F60801C4F202010968C9B226
:1023C0000A0944F2C411C0F60001895CC84040F219
:1023D0000001C2F20001086040F20800C2F20000F1
:1023E0000068FFF77BFE00208DF80F00FFE79DF8E7
:1023F0000F0004B080BD000040F20000C2F20000F7
:102400000068704780B586B0002005900490039066
:10241000029043F60800C4F20200006800F00C00CD
:102420000146019140B1FFE7019804280AD0FFE777
:10243000019808280CD04FE042F20040C0F2F400AE
:1024400002904FE047F64000C0F27D10029049E054
:1024500043F60400C4F20200016801F03F01059157
:1024600000684002002813D5FFE743F60400C4F2D9
:1024700002000068C0F3881047F64001C0F27D11E9
:10248000A0FB0101059A0023FDF74AFF049012E02A
:1024900043F60400C4F202000068C0F3881042F260
:1024A0000041C0F2F401A0FB0101059A0023FDF7F1
:1024B00037FF0490FFE743F60400C4F2020000680F
:1024C00000F44031022000EBD130039004980399CE
:1024D000B0FBF1F0029005E042F20040C0F2F400DF
:1024E0000290FFE7029806B080BD000080B586B07C
:1024F0000490049820B9FFE701208DF8170050E3FD
:1025000004980078C007002800F0A580FFE743F694
:102510000800C4F20200006800F00C00042813D088
:10252000FFE743F60800C4F20200006800F00C0068
:1025300008281ED1FFE743F60400C4F20200006839
:102540004002002815D5FFE743F60000C4F2020060
:10255000006800F400310020B0EB514F08D0FFE7D5
:102560000498406820B9FFE701208DF8170018E3B0
:1025700070E0FFE704984068B0F5803F09D1FFE7BD
:1025800043F60001C4F20201086840F4803008609C
:1025900020E004984068B0F5A02F0DD1FFE743F686
:1025A0000001C4F20201086840F480200860086855
:1025B00040F4803008600CE043F60001C4F20201F0
:1025C000086820F480300860086820F480200860E3
:1025D000FFE7FFE7FFE704984068E8B1FFE7FFF790
:1025E00051FD0390FFE743F60000C4F202000068CB
:1025F00000F400310020B0EB514F0CD1FFE7FFF7A2
:1026000041FD0399401A652804D3FFE703208DF8A4
:102610001700C6E2E7E71CE0FFF734FD0390FFE791
:1026200043F60000C4F20200006800F4003100200C
:10263000B0EB514F0CD0FFE7FFF724FD0399401A90
:10264000652804D3FFE703208DF81700A9E2E7E728
:10265000FFE7FFE7FFE7049800788007002840F1D4
:102660009680FFE743F60800C4F20200006810F00D
:102670000C0F13D0FFE743F60800C4F20200006815
:1026800000F00C0008282CD1FFE743F60400C4F248
:10269000020000684002002823D4FFE743F6000050
:1026A000C4F20200006800F002010020B0EB510FFC
:1026B00009D0FFE70498C068012804D0FFE7012093
:1026C0008DF817006DE243F60001C4F202010868BC
:1026D00020F0F800049A126940EAC2000860FFE79F
:1026E00054E00498C06870B3FFE70021C4F24721AA
:1026F00001200860FFF7C6FC0390FFE743F60000E7
:10270000C4F20200006800F002010020B0EB510F9B
:102710000CD1FFE7FFF7B6FC0399401A032804D356
:10272000FFE703208DF817003BE2E7E743F60001DF
:10273000C4F20201086820F0F800049A126940EA25
:10274000C200086021E00021C4F247210020086097
:10275000FFF798FC0390FFE743F60000C4F2020085
:10276000006800F002010020B0EB510F0CD0FFE731
:10277000FFF788FC0399401A032804D3FFE70320DE
:102780008DF817000DE2E7E7FFE7FFE7FFE70498A2
:102790000078000700284BD5FFE70498406918B37C
:1027A000FFE740F68061C4F2472101200860FFF78F
:1027B00069FC0390FFE743F67400C4F2020000686E
:1027C00000F002010020B0EB510F0CD1FFE7FFF742
:1027D00059FC0399401A032804D3FFE703208DF81E
:1027E0001700DEE1E7E722E040F68061C4F247210E
:1027F00000200860FFF746FC0390FFE743F67400F3
:10280000C4F20200006800F002010020B0EB510F9A
:102810000CD0FFE7FFF736FC0399401A032804D3D6
:10282000FFE703208DF81700BBE1E7E7FFE7FFE7CD
:10283000049800784007002840F1CE80FFE7002090
:102840008DF8070043F64000C4F202000068C000A3
:10285000002815D4FFE7FFE70020009043F6400072
:10286000C4F20200016841F080510160006800F08C
:10287000805000900098FFE701208DF80700FFE7E7
:1028800047F20000C4F200000068C005002822D40E
:10289000FFE747F20001C4F20001086840F48070CD
:1028A0000860FFF7EFFB0390FFE747F20000C4F278
:1028B00000000068C00500280CD4FFE7FFF7E2FB2A
:1028C0000399401A032804D3FFE703208DF817006B
:1028D00067E1EAE7FFE7FFE704988068012809D18C
:1028E000FFE743F67001C4F20201086840F00100FE
:1028F00008601FE00498806805280DD1FFE743F6C3
:102900007001C4F20201086840F004000860086821
:1029100040F0010008600CE043F67001C4F20201CF
:10292000086820F001000860086820F004000860D2
:10293000FFE7FFE7FFE704988068F8B1FFE7FFF7DC
:10294000A1FB0390FFE743F67000C4F202000068A9
:1029500000F002010020B0EB510F0ED1FFE7FFF7AE
:1029600091FB0399401A41F28931884204D3FFE771
:1029700003208DF8170014E1E5E71EE0FFF782FB66
:102980000390FFE743F67000C4F20200006800F015
:1029900002010020B0EB510F0ED0FFE7FFF772FBF2
:1029A0000399401A41F28931884204D3FFE703209A
:1029B0008DF81700F5E0E5E7FFE79DF8070001282F
:1029C00009D1FFE743F64001C4F20201086820F094
:1029D00080500860FFE7FFE704988069002800F056
:1029E000DC80FFE743F60800C4F20200006800F054
:1029F0000C00082800F08580FFE704988069022811
:102A00005CD1FFE76021C4F2472100200860FFF796
:102A100039FB0390FFE743F60000C4F202000068B0
:102A200000F000710020B0EB516F0CD0FFE7FFF712
:102A300029FB0399401A032804D3FFE703208DF8EC
:102A40001700AEE0E7E70499C869D1F820C04B6AE7
:102A50008A6A40EA0C0040EA8310D2034FF6FF7303
:102A60009A43A2F580321043C96A40EA016043F6F6
:102A70000401C4F2020108606021C4F24721012070
:102A80000860FFF7FFFA0390FFE743F60000C4F287
:102A90000200006800F000710020B0EB516F0CD113
:102AA000FFE7FFF7EFFA0399401A032804D3FFE783
:102AB00003208DF8170074E0E7E721E06021C4F2FD
:102AC000472100200860FFF7DDFA0390FFE743F697
:102AD0000000C4F20200006800F000710020B0EBBA
:102AE000516F0CD0FFE7FFF7CDFA0399401A032886
:102AF00004D3FFE703208DF8170052E0E7E7FFE774
:102B00004AE004988069012804D1FFE701208DF88C
:102B1000170046E043F60400C4F202000068029089
:102B200004988069012831D0FFE7029800F4800002
:102B30000499C969884229D1FFE7029800F03F0053
:102B40000499096A884221D1FFE7029847F6C071CB
:102B500008400499496AB0EB811F17D1FFE702983A
:102B600000F440300499896AC9034FF6FF7291431B
:102B7000A1F58031884209D1FFE7029800F070602A
:102B80000499C96AB0EB016F04D0FFE701208DF80A
:102B9000170006E0FFE7FFE7FFE700208DF81700CA
:102BA000FFE79DF8170006B080BD000081B00090DF
:102BB0000098042809D1FFE74EF21001CEF200017F
:102BC000086840F00400086008E04EF21001CEF200
:102BD0000001086820F004000860FFE701B07047BA
:102BE00080B582B00190019800F066FA02B080BD15
:102BF00080B5012000F004F8052000F0A5F880BDA4
:102C000080B582B08DF807000020C4F202004FF4B6
:102C100000710022FFF71EFA9DF80700000900F07E
:102C200009F89DF8070000F00F0000F003F802B06B
:102C300080BD000080B586B08DF817009DF81700A4
:102C400000F008020020C4F202004FF48071FFF788
:102C500001FA9DF8170000F0040240F20040C4F2AF
:102C6000020001904FF48061FFF7F4F901989DF89C
:102C7000171001F002021021FFF7ECF901989DF8FE
:102C8000171001F001022021FFF7E4F940F60000DF
:102C9000C4F202000290802103910122FFF7DAF9C9
:102CA0003220049000F05AF8029803990022FFF7AE
:102CB000D1F9049800F052F806B080BD80B582B01A
:102CC0008DF807008DF8061044F20000C5F214409C
:102CD00000909DF80600022804DBFFE700208DF835
:102CE0000600FFE79DF8070040F27001C2F2000104
:102CF000C8709DF8060008719DF807009DF8062031
:102D00006946895C084440F08000C0B2FFF778FF54
:102D100002B080BD80B582B08DF807000020C4F2FB
:102D200002004FF400710122FFF794F99DF80700AB
:102D30000009FFF77FFF9DF8070000F00F00FFF785
:102D400079FF02B080BD000080B582B08DF8070029
:102D50009DF80700FEF792FF02B080BD80B584B0F9
:102D6000ADF80E004EF21400CEF200000068013003
:102D700044F6D351C1F26201A0FB01108009029018
:102D8000FFF780F94FF47A7148434EF21801CEF202
:102D900000010968029AB1FBF2F1401A00F57A705D
:102DA0000190FFE7FFF76EF94FF47A7148434EF256
:102DB0001801CEF200010968029AB1FBF2F1401A43
:102DC0000199401A00F57A70BDF80E10884201D2C0
:102DD000FFE7E7E704B080BD80B540F27000C2F2C3
:102DE0000000017841F004010170007840F0080013
:102DF000FFF706FF80BD000080B58CB00120089071
:102E000002200A90002009904FF4007007900020E3
:102E1000C4F20200059007A90691FEF751FF06993A
:102E20008020079040F60000C4F20200FEF748FF41
:102E30000598069908220792FEF742FF069920207E
:102E4000079040F20040C4F202000490FEF738FF01
:102E50000498069910220792FEF732FF049806990B
:102E60004FF480620792FEF72BFF059806994FF406
:102E700080720792FEF724FFFFE7FFF703F9C728E8
:102E800004D8FFE70120FFF75FFFF6E740F270018B
:102E9000C2F2000102910020C870087148704878A1
:102EA00040F00800487003200090FFF7C3FE0520A3
:102EB0000390FFF749FF0098FFF7BCFE0398FFF768
:102EC00043FF0098FFF7B6FE0398FFF73DFF02208F
:102ED0000190FFF7AFFE0398FFF736FF02984078A6
:102EE00040F02000FFF78CFE029904200870FFF7E5
:102EF00073FFFFF77DFE019902988170807840F0A2
:102F00000400FFF77DFE0398FFF71EFF0CB080BDA5
:102F100080B582B08DF807008DF8061000929DF8FC
:102F200007009DF80610FFF7C9FEFFE7009800783C
:102F3000002846D0FFE740F27000C2F20000C078DF
:102F400020280EDBFFE740F27001C2F200010020F2
:102F5000C870087901300871C8780979FFF7AEFEAA
:102F6000FFE7009800780A280CD1FFE740F27001D3
:102F7000C2F20001087901300871C8780979FFF7B9
:102F80009DFE1AE0009800780D2809D1FFE740F275
:102F90007000C2F2000001790020FFF78FFE0BE005
:102FA00000980078FFF7B6FE40F27001C2F200010F
:102FB000C8780130C870FFE7FFE700980130009043
:102FC000B4E702B080BD000080B588B0FFE7002004
:102FD000039043F64400C4F20200016841F480719A
:102FE0000160006800F4807003900398FFE740F2EE
:102FF0007800C2F20000029042F20001C4F2010126
:1030000001604FF4803141600022019282600261D0
:10301000027680F82020C2620121C0F60071816230
:10302000C26001210091C16180F830204161FEF74A
:1030300047FC009A01990298049105920691079124
:1030400004A9FEF729FB08B080BD000088B00790F6
:1030500006910592079800F0070004900498C0F1CB
:103060000700052803D3FFE70420019004E004983B
:10307000C0F107000190FFE7019803900498043025
:10308000062803D8FFE70020009003E004980338E7
:103090000090FFE70098029006980399012202FA37
:1030A00001F101390840029B984005999A40013A84
:1030B0001140084308B0704780B582B00090009876
:1030C0000138B0F1807F03D3FFE70120019019E0C0
:1030D000009801384EF21401CEF2000108604FF062
:1030E000FF300F2100F01EF94EF21801CEF2000160
:1030F000002008604EF21002CEF20002072111609B
:103100000190FFE7019802B080BD000080B5FEF796
:10311000BFFF80BD80B596B0FFE70020049043F666
:103120004000C4F20200016841F080510160006873
:1031300000F0805004900498FFE7FFE70020039020
:1031400047F20000C4F20000016841F44041016010
:10315000006800F4404003900398FFE702210091CB
:103160000A9101200D9010200E90109100210291E3
:10317000119112904FF4A8701390042001901490B4
:10318000072015900AA8FFF7B1F9009902980D22BF
:103190000592069107904FF480520892099005A875
:1031A000FEF7F8FFFFF728F944F6D351C1F26201A8
:1031B000A0FB01108009FFF713FD0198FFF7F6FC53
:1031C000029A4FF0FF301146FEF7C2FF16B080BDE5
:1031D00086B0002105910491022003900291019094
:1031E00043F60800C4F20200006800F00C000590ED
:1031F0000598009040B1FFE7009804280ED0FFE743
:103200000098082814D059E040F20001C2F20001F1
:1032100042F20040C0F2F400086059E040F20001C0
:10322000C2F2000147F64000C0F27D1008604FE096
:1032300043F60400C4F202000168C1F38051029118
:10324000006800F03F000190029888B1FFE7019903
:1032500047F64000C0F27D10B0FBF1F043F60401E8
:10326000C4F202010968C1F388114843049010E0D8
:10327000019942F20040C0F2F400B0FBF1F043F6D5
:103280000401C4F202010968C1F3881148430490A3
:10329000FFE743F60400C4F20200006800F4403186
:1032A000022000EBD130039004980399B0FBF1F0B9
:1032B00040F20001C2F20001086009E040F20001A2
:1032C000C2F2000142F20040C0F2F4000860FFE7E1
:1032D00043F60800C4F202000068C0B2010944F2DB
:1032E000C410C0F60000405C0590059A40F2000151
:1032F000C2F200010868D040086006B070470000C4
:103300004EF68851CEF20001086840F47000086063
:10331000704700004EF60C50CEF200000068C0F37B
:103320000220704782B08DF8070000919DF90700D8
:1033300000280AD4FFE7009800019DF907104EF21B
:103340000042CEF2000288540BE0009800019DF884
:10335000071001F00F014EF61452CEF2000288540D
:10336000FFE702B07047000083B00290029800F0BF
:10337000070000904EF60C51CEF200010868019053
:1033800001984FF6FF02104001900198009A40EA20
:1033900002200022C0F2FA52104301900198086006
:1033A00003B0704780B5FFF723FC44F26E22C0F6ED
:1033B000000200210846FFF7ABFD6420FEF75EFC2B
:1033C00000F002F880BD000080B5FFF711FC44F268
:1033D0007722C0F6000200210846FFF799FD80BD64
:1033E00080B582B040F27800C2F200000090FEF793
:1033F00055FB00984FF0FF31FEF7BAFA0098FEF740
:1034000057FA014600980191FEF702FC01984FF42B
:103410007A71414340F20110C0F21000A1FB00207C
:10342000091A00EB5100C00A0190019802B080BD5A
:1034300080B582B040F27800C2F200000090FEF742
:103440002DFB00984FF0FF31FEF792FA0098FEF73F
:103450002FFA014600980191FEF7DAFB019842F23B
:103460001C51414340F20110C0F21000A1FB0020AA
:10347000091A00EB51014FF4FA7000EBD1200190D2
:10348000019802B080BD000080B5A2B0002021905C
:10349000FFF79EFEFFF73EFEFEF708FEFFE7002067
:1034A000209043F63000C4F20200016841F00101AF
:1034B0000160006800F0010020902098FFE7FFE71E
:1034C00000201F9043F63000C4F20200016841F072
:1034D00002010160006800F002001F901F98FFE7E2
:1034E000FFE700201E9043F63000C4F2020001689E
:1034F00041F004010160006800F004001E901E9875
:10350000FFE7022005901990012008901A900020F2
:103510000B901B901C900020C4F20200099019A986
:103520000A91FEF7CDFB089B09980A990B9A4FF078
:10353000040CCDF818C0CDF864C01A931B921C92ED
:10354000FEF7BEFB089A0A990B9819921A901C90E4
:1035500040F20040C4F202000790FEF7B1FB059B69
:1035600007980A990B9A19931A921C92FEF7A8FBD6
:10357000069B07980A990B9A19931A921C92FEF7C8
:103580009FFB089B09980A990B9A199303231A9396
:103590001B92FEF795FBFFF72FFCFFF715FD0B992C
:1035A00044F24A22C0F600020846FFF7B1FC4FF48D
:1035B0007A70FEF763FBFFF707FF0B9818901790E0
:1035C0001190FFE700F088F818901898012814D09F
:1035D000FFE71898022810D0FFE7189803280CD0AE
:1035E000FFE71898042808D0FFE71898052804D0AA
:1035F000FFE71898062801D1FFE703E0FFF7D2FEA6
:10360000FFE7DFE7FFF7F4FA44F21422C0F6000206
:1036100000210846FFF77CFC6420FEF72FFBFFE744
:1036200018980C2820D0FFE700F056F81890FFF704
:10363000FFFE1790179A44F27421C0F6000112A8F9
:103640000490FCF7E5FEFFF7D3FA44F26822C0F6D7
:103650000002002103910846FFF75AFC0399049ADF
:103660000820FFF755FCDBE74FF0FF301890FFF71D
:10367000BFFA44F2D412C0F6000200210846FFF758
:1036800047FC6420FEF7FAFAFFE718980C2820D0D0
:10369000FFE700F021F81890FFF7A2FE1190119AB1
:1036A00044F27421C0F600010CA80290FCF7B0FEB1
:1036B000FFF79EFA44F25D22C0F60002002101915C
:1036C0000846FFF725FC0199029A0D20FFF720FC20
:1036D000DBE7002022B080BD80B58AB000200990D1
:1036E000FFE70020C4F202000790022100220892A6
:1036F000FEF7B0FC0798089A0421FEF7ABFC40F2F5
:103700000040C4F202000121FEF78CFC18B9FFE76B
:1037100001200990AEE040F20040C4F20200022114
:10372000FEF780FC18B9FFE702200990A2E040F202
:103730000040C4F202000421FEF774FC18B9FFE750
:103740000320099096E00020C4F2020005900221B7
:1037500001220692FEF77EFC059804210022FEF766
:1037600079FC069940F20040C4F20200FEF75AFCD0
:1037700018B9FFE7042009907CE040F20040C4F251
:1037800002000221FEF74EFC18B9FFE70520099060
:1037900070E040F20040C4F202000421FEF742FC57
:1037A00018B9FFE70620099064E00020C4F2020087
:1037B000039002210022FEF74DFC03980421012210
:1037C0000492FEF747FC049940F20040C4F2020064
:1037D000FEF728FC18B9FFE7072009904AE040F2FD
:1037E0000040C4F202000221FEF71CFC18B9FFE7FA
:1037F000082009903EE040F20040C4F2020004219B
:10380000FEF710FC18B9FFE70920099032E000200C
:10381000C4F202000190022101220292FEF71AFC7A
:103820000198029A0421FEF715FC029940F200402B
:10383000C4F20200FEF7F6FB18B9FFE70A20099070
:1038400018E040F20040C4F202000221FEF7EAFB59
:1038500018B9FFE70B2009900CE040F20040C4F2D9
:1038600002000421FEF7DEFB18B9FFE70C200990E7
:1038700000E036E709980AB080BD5FEA400C08BF57
:1038800091F0000F4FEA8C234FEAC12243EA5151D5
:103890004FEA1C5018BF00F5F0404FEA300018BF47
:1038A00041F000415FEA6C5C00F02980BCF1FF3F11
:1038B00008BF40F080407047130C06BF12044FF061
:1038C000100C4FF0000C130E04BF12020CF1080C88
:1038D000130F04BF12010CF1040C930F04BF9200EC
:1038E0000CF1020CD30F04BF52000CF1010C114675
:1038F0004FF00002A0F11F00A0EB0C00704711F088
:10390000004F08BF704731F000413FF4D5AF0B0CBA
:1039100006BF09044FF0100C4FF0000C0B0E04BF53
:1039200009020CF1080C0B0F04BF09010CF1040C87
:103930008B0F04BF89000CF1020CCB0F04BF4900B0
:103940000CF1010CCCF1200322FA03F341EA03014C
:1039500002FA0CF2A0EB0C0000F10100704700002D
:1039600023F07F4720F07F4C80EA030000F0004006
:10397000ACEB070303F57C5303F1FF032DE980490A
:1039800009B44FEA144324EA03484FEA154B25EAE9
:103990000B4E0FF2042606EB13273E7803FB066757
:1039A000C7F5000707FB06F64FEAD64606F1020602
:1039B0004FEA543707FB066CCCF1005C4FEA1C471A
:1039C0002CEA074C0CFB06F507FB06F404EB154646
:1039D0004FEA961649085FEA320234BF00204FF0E2
:1039E00000404FEAD13706FB07FC4FEA1C4C0CFBAA
:1039F0000BF7D21B03FB0CF761EB07010CFB0EF777
:103A0000B0EB074072EB17420CFB08F734BFA2EB98
:103A10000742B2EB074261EB17414FEA0C444FEA11
:103A2000910706FB07FC4FEA1C4C0CFB0BF7B0EBB5
:103A3000C74072EB573203FB0CF734BFA2EBC7420F
:103A4000B2EBC74261EB57310CFB0EF7B0EBC7008E
:103A500072EB57720CFB08F734BFA2EBC702B2EB54
:103A6000C70261EB57714FEA816141EA92114FEA57
:103A7000826242EA90124FEA806004EBCC04039F1A
:103A80004FEAD13706FB07FC4FEA1C4C0CFB0BF747
:103A9000D21B03FB0CF761EB07010CFB0EF7B0EB3D
:103AA000074072EB17420CFB08F734BFA2EB07424A
:103AB000B2EB074261EB17414FEA8C5504EB9C24B3
:103AC0004FEA910706FB07FC4FEA1C4C0CFB0BF777
:103AD000B0EBC74072EB573203FB0CF734BFA2EBDD
:103AE000C742B2EBC74261EB57310CFB0EF7B0EBAC
:103AF000C70072EB57720CFB08F734BFA2EBC7028A
:103B0000B2EBC70261EB57714FEA816141EA921152
:103B10004FEA826242EA90124FEA806015EB4C2530
:103B200044F100044FEAD13706FB07FC4FEA1C4C76
:103B30000CFB0BF7D21B03FB0CF761EB07010CFB33
:103B40000EF7B0EB074072EB17420CFB08F734BFDF
:103B5000A2EB0742B2EB074261EB17414FEA81311A
:103B600041EA92414FEA823242EA90424FEA803083
:103B70004FEA0C7615EB1C1544F1000448EA0343A8
:103B80004EEA0B484FF0000EB2EB080C71EB030746
:103B900024BF624639464EEB0E0E4FF0000B001864
:103BA000524149414BEB0B0BB2EB080C71EB030795
:103BB0007BF1000B24BF624639464EEB0E0E4FF0F0
:103BC000000B0018524149414BEB0B0BB2EB080CB8
:103BD00071EB03077BF1000B24BF624639464EEBC5
:103BE0000E0E51EA020718BF46F0010616EB0E76DC
:103BF00055F1000254F1000103D5BDE88901BDE88B
:103C00000088BDE88901BDE80048B619524141EB82
:103C10000101A3F10103704780807F7E7D7C7B7A68
:103C20007978777676757473727171706F6E6E6D68
:103C30006C6C6B6A6A69686867666665646463630E
:103C400062616160605F5F5E5E5D5D5C5C5B5B5A94
:103C50005A59595858575756565555555454535301
:103C600052525251515050504F4F4F4E4E4D4D4D5C
:103C70004C4C4C4B4B4B4A4A4A49494948484847A7
:103C800047474746464645454544444444434343E5
:103C900043424242424141419C46002B30D477008E
:103CA0002BD04FEA37071CB503B44FF010004FF08C
:103CB0001001BAF1000F06D0BCF1000FDCBF40F0DC
:103CC000080040F008014FF000000FBCBDE81040B4
:103CD0000BF1010BBBF1010F08BF5FEA170722BF11
:103CE00012F1010211F101014FF0004143F1000313
:103CF00000F0004043EA00007047F9D35708D0E7CE
:103D000046EA06464FEA164613F1400F1FDD13F14F
:103D1000200FDFBF16430A46002120335B42BED08E
:103D2000C3F1200746EA06464FEA164602FA07F7AD
:103D300046EA070622FA03F2C3F1200701FA07F761
:103D400042EA070221FA03F14FF00003A7E746EA2F
:103D5000020646EA06464FEA164646EA0106BCBF98
:103D600046EA0646360C4FF000034FF000024FF0D3
:103D7000000194E72DE9804C70B49A46934691E88F
:103D8000380007C831EA400C48BF34EA430C03D579
:103D9000FFF7E6FDFFF780FFF0BCBDE8008C2DE9E2
:103DA000804C70B49A46934691E8380007C810F0EA
:103DB000804F08BF13F0804F03D100F005F8FFF7E4
:103DC0006BFFF0BCBDE8008C20F07F4723F07F4CF8
:103DD00080EA030000F0004007EB0C03A3F57C53DE
:103DE000A3F1FE0392F0000F00F0B38095F0000FF6
:103DF00000F077802DE901494FEA114021EA00489F
:103E00004FEA144624EA064700FB06FC08FB06F6C8
:103E100007FB08F818EB06484CEB164C00FB07F7BD
:103E200018EB07484CEB17404FEA124B22EA0B4EB7
:103E30004FEA154625EA06470BFB06FC0EFB06F685
:103E400007FB0EFE1EEB064E4CEB164C0BFB07F76A
:103E50001EEB074E4CEB174B18EB0B0840F1000024
:103E600018EB0E0B58EB000840F100008F1A4FF0D2
:103E700000014FF000063CBFC943661B14BFB5EB01
:103E8000040C00213CBFC943F61B4FEA174427EA44
:103E900004454FEA1C472CEA074C04FB076205FB6C
:103EA00007F70CFB05F616EB074642EB174204FB3F
:103EB0000CFC16EB0C4642EB1C421BEB060658EBC7
:103EC000020241414EEA8E0E46EA9E0601D5BDE849
:103ED0000189B619524141EB0101A3F10103BDE88B
:103EE00001894FEA144524EA05464FEA114721EAC1
:103EF000074C05FB07F406FB07F70CFB06F111EB7B
:103F0000074144EB174405FB0CFC11EB0C4144EB5F
:103F10001C444FEA124722EA074C05FB07F206FB56
:103F200007F70CFB06F616EB074642EB174205FBBC
:103F30000CFC16EB0C4642EB1C456A1854F10001D0
:103F400048BF7047B619524141EB0101A3F101038B
:103F5000704795F0000F37D04FEA114221EA024630
:103F60004FEA144724EA074C02FB07F106FB07F768
:103F70000CFB06F414EB074441EB174102FB0CFC6D
:103F800014EB0C4441EB1C414FEA154725EA074C62
:103F900002FB07F506FB07F70CFB06F616EB0746D8
:103FA00045EB174502FB0CFC16EB0C4645EB1C429F
:103FB000121951F1000148BF7047B619524141EB47
:103FC0000101A3F1010370474FEA144524EA0546B5
:103FD0004FEA114721EA074C05FB07F106FB07F7FB
:103FE0000CFB06F212EB074241EB174105FB0CFC00
:103FF00012EB0C4251EB1C414FF0000648BF7047DA
:10400000921841EB0101A3F10103704703B4019839
:104010004100009850EAC12018BF04204A0D18BF83
:1040200040F0010040F2FF72B2EB515F08BF40F078
:104030000200012808BF052002B0704730380A2866
:1040400001D20120704700207047000010B5002900
:104050000AD00878002807D005487844FDF710FA00
:10406000002801D0002010BD0248784410BD000097
:10407000720200006A02000010B500290AD0087818
:10408000002807D005487844FDF7FAF9002801D048
:10409000002010BD0248784410BD000062020000FC
:1040A0005A020000F1EE100A4FF6FF71C0F2C03163
:1040B00020EA010040F04070E1EE100A7047FCF782
:1040C000E9BDFCF71DBF000000000000000000007B
:1040D000303132333435363738394142434445463E
:1040E0004030580030313233343536373839616238
:1040F000636465664030780004000008000000003A
:104100000000000200010000103031323334353637
:1041100037383961626364656678700030313233F4
:10412000343536373839414243444546585000000B
:1041300002400000000000A0000000000540000058
:10414000000000C8000000000C4000000000409C7F
:1041500000000000194000000020BCBE000000006C
:1041600034400000BFC91B8E00000004B5400000B1
:10417000504BCFD06607E2CF010000006C41000039
:104180003E8251AADFEEA73401000000D9420000B0
:10419000DCB5A0E23A301F97FFFFFFFFB4450000F7
:1041A000FD25A0C8E9A3C14FFFFFFFFFFF3F0000AF
:1041B0000000008000000000FF3F000000000080C1
:1041C00000000000000000000000000001020304E5
:1041D0000607080973657420706F7420666F72207B
:1041E0006672657175656E636520616E64207072BC
:1041F000657373202320616E6420666F722073657F
:1042000065206672657175656E6365207072657391
:104210007320310073657420706F7420666F722094
:1042200074696D6520616E642070726573732023FC
:1042300020616E6420666F72207365652074696DFD
:104240006520707265737320310039393234333030
:1042500033332C20393932343330343400667265CC
:104260007175656E63653A0074696D653A00455213
:10427000524F5200256400312953696E2032295370
:104280007175617265203329547269616E67756C4E
:10429000617220342953696E322035295374657058
:1042A000203629536177746F6F746800F8430008F3
:1042B0000000002010000000D001000808440008A1
:1042C00010000020B8060000EC0100081C000000EF
:1042D00043000000F8FFFFFF0C0000000E0000008C
:1042E0000F0000002E00000010010000430000003D
:1042F000F8FFFFFF00404040404040404040414107
:1043000041414140404040404040404040404040AA
:104310004040404040050202020202020202020244
:104320000202020202202020202020202020200241
:1043300002020202020290909090909010101010D1
:10434000101010101010101010101010101010106D
:104350000202020202028888888888880808080801
:1043600008080808080808080808080808080808CD
:1043700002020202400000000000000000000000F5
:10438000000000000000000000000000000000002D
:10439000000000000000000000000000000000001D
:1043A000000000000000000000000000000000000D
:1043B00000000000000000000000000000000000FD
:1043C00000000000000000000000000000000000ED
:1043D00000000000000000000000000000000000DD
:1043E00000000000000000000000000000000000CD
:1043F00000000000000000000024F40001000000A4
:084400001000000000000000A4
:040000050800019559
:00000001FF
